{
  "_format": "hh-sol-artifact-1",
  "contractName": "GreenCardHashes",
  "sourceName": "contracts/GreenCard.sol",
  "abi": [
    {
      "anonymous": false,
      "inputs": [
        {
          "indexed": false,
          "internalType": "string",
          "name": "id",
          "type": "string"
        },
        {
          "indexed": false,
          "internalType": "string",
          "name": "hash",
          "type": "string"
        },
        {
          "indexed": false,
          "internalType": "uint256",
          "name": "timestamp",
          "type": "uint256"
        }
      ],
      "name": "HashStored",
      "type": "event"
    },
    {
      "inputs": [
        {
          "internalType": "string",
          "name": "id",
          "type": "string"
        }
      ],
      "name": "getHash",
      "outputs": [
        {
          "internalType": "string",
          "name": "",
          "type": "string"
        },
        {
          "internalType": "uint256",
          "name": "",
          "type": "uint256"
        }
      ],
      "stateMutability": "view",
      "type": "function"
    },
    {
      "inputs": [
        {
          "internalType": "string",
          "name": "id",
          "type": "string"
        },
        {
          "internalType": "string",
          "name": "hash",
          "type": "string"
        }
      ],
      "name": "storeHash",
      "outputs": [],
      "stateMutability": "nonpayable",
      "type": "function"
    },
    {
      "inputs": [
        {
          "internalType": "string",
          "name": "id",
          "type": "string"
        },
        {
          "internalType": "string",
          "name": "hash",
          "type": "string"
        }
      ],
      "name": "verifyHash",
      "outputs": [
        {
          "internalType": "bool",
          "name": "",
          "type": "bool"
        }
      ],
      "stateMutability": "view",
      "type": "function"
    }
  ],
  "bytecode": "0x6080604052348015600f57600080fd5b50610fb28061001f6000396000f3fe608060405234801561001057600080fd5b50600436106100415760003560e01c8063258b85d4146100465780635b6beeb9146100765780636f28ee09146100a7575b600080fd5b610060600480360381019061005b91906107fd565b6100c3565b60405161006d9190610890565b60405180910390f35b610090600480360381019061008b91906108ab565b610237565b60405161009e92919061098c565b60405180910390f35b6100c160048036038101906100bc91906107fd565b61043a565b005b60006100d967c27999199009a5d760c01b6106a0565b6100ed67c92a054e23136cce60c01b6106a0565b610101676e98fa444a82f0ba60c01b6106a0565b61011567c9d7a12523549fc560c01b6106a0565b6000808460405161012691906109f8565b9081526020016040518091039020600001805461014290610a3e565b905011610184576040517f08c379a000000000000000000000000000000000000000000000000000000000815260040161017b90610abb565b60405180910390fd5b61019867b573c8c24663c59e60c01b6106a0565b6101ac679b0e1045f0012a5360c01b6106a0565b6101c067179bdd303a4f2ca060c01b6106a0565b816040516020016101d191906109f8565b604051602081830303815290604052805190602001206000846040516101f791906109f8565b90815260200160405180910390206000016040516020016102189190610b73565b6040516020818303038152906040528051906020012014905092915050565b6060600061024f67059fb9f6ad7784aa60c01b6106a0565b610263672f433a43fa59177860c01b6106a0565b610277676a8511be9300f18560c01b6106a0565b61028b672238d3e46280130060c01b6106a0565b6000808460405161029c91906109f8565b908152602001604051809103902060000180546102b890610a3e565b9050116102fa576040517f08c379a00000000000000000000000000000000000000000000000000000000081526004016102f190610bd6565b60405180910390fd5b61030e67a09c50d27de483a460c01b6106a0565b61032267d8e61a4191adba0a60c01b6106a0565b61033667805c0f7bd090a41060c01b6106a0565b6000808460405161034791906109f8565b908152602001604051809103902060405180604001604052908160008201805461037090610a3e565b80601f016020809104026020016040519081016040528092919081815260200182805461039c90610a3e565b80156103e95780601f106103be576101008083540402835291602001916103e9565b820191906000526020600020905b8154815290600101906020018083116103cc57829003601f168201915b50505050508152602001600182015481525050905061041267d649c305e96a766560c01b6106a0565b61042667c0a3ea56af93ecd160c01b6106a0565b806000015181602001519250925050915091565b61044e67d107d6bdba15aa9f60c01b6106a0565b610462677a7722d69ab5c5a460c01b6106a0565b61047667929baee05a45ed0460c01b6106a0565b61048a67bd90877cc0f86e8660c01b6106a0565b6000808360405161049b91906109f8565b908152602001604051809103902060000180546104b790610a3e565b9050146104f9576040517f08c379a00000000000000000000000000000000000000000000000000000000081526004016104f090610c42565b60405180910390fd5b61050d67349d1f2df8a370a760c01b6106a0565b61052167fe95cb556979ac0e60c01b6106a0565b61053567167a183b8bc73e5460c01b6106a0565b610549672e3e65c5360872f160c01b6106a0565b600081511161058d576040517f08c379a000000000000000000000000000000000000000000000000000000000815260040161058490610cae565b60405180910390fd5b6105a167f676986a107fefde60c01b6106a0565b6105b5678541c7b41ead96fd60c01b6106a0565b6105c967b9a37ad95a6ef64d60c01b6106a0565b60004290506105e267a4e43912f766a1e460c01b6106a0565b60405180604001604052808381526020018281525060008460405161060791906109f8565b9081526020016040518091039020600082015181600001908161062a9190610e65565b506020820151816001015590505061064c678e88fad33a0dcf0c60c01b6106a0565b61066067396e24d053bee4c360c01b6106a0565b7fa0e74deee554563b6b60943f7c6686d895986ae9e54a55f2648e455dd04c402883838360405161069393929190610f37565b60405180910390a1505050565b50565b6000604051905090565b600080fd5b600080fd5b600080fd5b600080fd5b6000601f19601f8301169050919050565b7f4e487b7100000000000000000000000000000000000000000000000000000000600052604160045260246000fd5b61070a826106c1565b810181811067ffffffffffffffff82111715610729576107286106d2565b5b80604052505050565b600061073c6106a3565b90506107488282610701565b919050565b600067ffffffffffffffff821115610768576107676106d2565b5b610771826106c1565b9050602081019050919050565b82818337600083830152505050565b60006107a061079b8461074d565b610732565b9050828152602081018484840111156107bc576107bb6106bc565b5b6107c784828561077e565b509392505050565b600082601f8301126107e4576107e36106b7565b5b81356107f484826020860161078d565b91505092915050565b60008060408385031215610814576108136106ad565b5b600083013567ffffffffffffffff811115610832576108316106b2565b5b61083e858286016107cf565b925050602083013567ffffffffffffffff81111561085f5761085e6106b2565b5b61086b858286016107cf565b9150509250929050565b60008115159050919050565b61088a81610875565b82525050565b60006020820190506108a56000830184610881565b92915050565b6000602082840312156108c1576108c06106ad565b5b600082013567ffffffffffffffff8111156108df576108de6106b2565b5b6108eb848285016107cf565b91505092915050565b600081519050919050565b600082825260208201905092915050565b60005b8381101561092e578082015181840152602081019050610913565b60008484015250505050565b6000610945826108f4565b61094f81856108ff565b935061095f818560208601610910565b610968816106c1565b840191505092915050565b6000819050919050565b61098681610973565b82525050565b600060408201905081810360008301526109a6818561093a565b90506109b5602083018461097d565b9392505050565b600081905092915050565b60006109d2826108f4565b6109dc81856109bc565b93506109ec818560208601610910565b80840191505092915050565b6000610a0482846109c7565b915081905092915050565b7f4e487b7100000000000000000000000000000000000000000000000000000000600052602260045260246000fd5b60006002820490506001821680610a5657607f821691505b602082108103610a6957610a68610a0f565b5b50919050565b7f48617368206e6f7420666f756e6420666f7220746869732049442e0000000000600082015250565b6000610aa5601b836108ff565b9150610ab082610a6f565b602082019050919050565b60006020820190508181036000830152610ad481610a98565b9050919050565b60008190508160005260206000209050919050565b60008154610afd81610a3e565b610b0781866109bc565b94506001821660008114610b225760018114610b3757610b6a565b60ff1983168652811515820286019350610b6a565b610b4085610adb565b60005b83811015610b6257815481890152600182019150602081019050610b43565b838801955050505b50505092915050565b6000610b7f8284610af0565b915081905092915050565b7f4861736820646f6573206e6f742065786973742e000000000000000000000000600082015250565b6000610bc06014836108ff565b9150610bcb82610b8a565b602082019050919050565b60006020820190508181036000830152610bef81610bb3565b9050919050565b7f4861736820616c7265616479206578697374732e000000000000000000000000600082015250565b6000610c2c6014836108ff565b9150610c3782610bf6565b602082019050919050565b60006020820190508181036000830152610c5b81610c1f565b9050919050565b7f486173682063616e6e6f7420626520656d7074792e0000000000000000000000600082015250565b6000610c986015836108ff565b9150610ca382610c62565b602082019050919050565b60006020820190508181036000830152610cc781610c8b565b9050919050565b60006020601f8301049050919050565b600082821b905092915050565b600060088302610d1b7fffffffffffffffffffffffffffffffffffffffffffffffffffffffffffffffff82610cde565b610d258683610cde565b95508019841693508086168417925050509392505050565b6000819050919050565b6000610d62610d5d610d5884610973565b610d3d565b610973565b9050919050565b6000819050919050565b610d7c83610d47565b610d90610d8882610d69565b848454610ceb565b825550505050565b600090565b610da5610d98565b610db0818484610d73565b505050565b5b81811015610dd457610dc9600082610d9d565b600181019050610db6565b5050565b601f821115610e1957610dea81610adb565b610df384610cce565b81016020851015610e02578190505b610e16610e0e85610cce565b830182610db5565b50505b505050565b600082821c905092915050565b6000610e3c60001984600802610e1e565b1980831691505092915050565b6000610e558383610e2b565b9150826002028217905092915050565b610e6e826108f4565b67ffffffffffffffff811115610e8757610e866106d2565b5b610e918254610a3e565b610e9c828285610dd8565b600060209050601f831160018114610ecf5760008415610ebd578287015190505b610ec78582610e49565b865550610f2f565b601f198416610edd86610adb565b60005b82811015610f0557848901518255600182019150602085019450602081019050610ee0565b86831015610f225784890151610f1e601f891682610e2b565b8355505b6001600288020188555050505b505050505050565b60006060820190508181036000830152610f51818661093a565b90508181036020830152610f65818561093a565b9050610f74604083018461097d565b94935050505056fea2646970667358221220054025105b5853e811ae21b902bea61d180a741320f2f994d2050955725a4c7e64736f6c634300081c0033",
  "linkReferences": {},
  "deployedLinkReferences": {}
}