{
  "_format": "hh-sol-artifact-1",
  "contractName": "LicenseNFT",
  "sourceName": "contracts/LicenseNFT.sol",
  "abi": [
    {
      "inputs": [
        {
          "internalType": "uint256",
          "name": "_mintingFee",
          "type": "uint256"
        }
      ],
      "stateMutability": "nonpayable",
      "type": "constructor"
    },
    {
      "inputs": [
        {
          "internalType": "address",
          "name": "sender",
          "type": "address"
        },
        {
          "internalType": "uint256",
          "name": "tokenId",
          "type": "uint256"
        },
        {
          "internalType": "address",
          "name": "owner",
          "type": "address"
        }
      ],
      "name": "ERC721IncorrectOwner",
      "type": "error"
    },
    {
      "inputs": [
        {
          "internalType": "address",
          "name": "operator",
          "type": "address"
        },
        {
          "internalType": "uint256",
          "name": "tokenId",
          "type": "uint256"
        }
      ],
      "name": "ERC721InsufficientApproval",
      "type": "error"
    },
    {
      "inputs": [
        {
          "internalType": "address",
          "name": "approver",
          "type": "address"
        }
      ],
      "name": "ERC721InvalidApprover",
      "type": "error"
    },
    {
      "inputs": [
        {
          "internalType": "address",
          "name": "operator",
          "type": "address"
        }
      ],
      "name": "ERC721InvalidOperator",
      "type": "error"
    },
    {
      "inputs": [
        {
          "internalType": "address",
          "name": "owner",
          "type": "address"
        }
      ],
      "name": "ERC721InvalidOwner",
      "type": "error"
    },
    {
      "inputs": [
        {
          "internalType": "address",
          "name": "receiver",
          "type": "address"
        }
      ],
      "name": "ERC721InvalidReceiver",
      "type": "error"
    },
    {
      "inputs": [
        {
          "internalType": "address",
          "name": "sender",
          "type": "address"
        }
      ],
      "name": "ERC721InvalidSender",
      "type": "error"
    },
    {
      "inputs": [
        {
          "internalType": "uint256",
          "name": "tokenId",
          "type": "uint256"
        }
      ],
      "name": "ERC721NonexistentToken",
      "type": "error"
    },
    {
      "inputs": [
        {
          "internalType": "address",
          "name": "owner",
          "type": "address"
        }
      ],
      "name": "OwnableInvalidOwner",
      "type": "error"
    },
    {
      "inputs": [
        {
          "internalType": "address",
          "name": "account",
          "type": "address"
        }
      ],
      "name": "OwnableUnauthorizedAccount",
      "type": "error"
    },
    {
      "anonymous": false,
      "inputs": [
        {
          "indexed": true,
          "internalType": "address",
          "name": "owner",
          "type": "address"
        },
        {
          "indexed": true,
          "internalType": "address",
          "name": "approved",
          "type": "address"
        },
        {
          "indexed": true,
          "internalType": "uint256",
          "name": "tokenId",
          "type": "uint256"
        }
      ],
      "name": "Approval",
      "type": "event"
    },
    {
      "anonymous": false,
      "inputs": [
        {
          "indexed": true,
          "internalType": "address",
          "name": "owner",
          "type": "address"
        },
        {
          "indexed": true,
          "internalType": "address",
          "name": "operator",
          "type": "address"
        },
        {
          "indexed": false,
          "internalType": "bool",
          "name": "approved",
          "type": "bool"
        }
      ],
      "name": "ApprovalForAll",
      "type": "event"
    },
    {
      "anonymous": false,
      "inputs": [
        {
          "indexed": false,
          "internalType": "uint256",
          "name": "_fromTokenId",
          "type": "uint256"
        },
        {
          "indexed": false,
          "internalType": "uint256",
          "name": "_toTokenId",
          "type": "uint256"
        }
      ],
      "name": "BatchMetadataUpdate",
      "type": "event"
    },
    {
      "anonymous": false,
      "inputs": [
        {
          "indexed": false,
          "internalType": "uint256",
          "name": "_tokenId",
          "type": "uint256"
        }
      ],
      "name": "MetadataUpdate",
      "type": "event"
    },
    {
      "anonymous": false,
      "inputs": [
        {
          "indexed": true,
          "internalType": "address",
          "name": "recipient",
          "type": "address"
        },
        {
          "indexed": false,
          "internalType": "uint256",
          "name": "tokenId",
          "type": "uint256"
        },
        {
          "indexed": false,
          "internalType": "string",
          "name": "metadataURI",
          "type": "string"
        }
      ],
      "name": "NFTMinted",
      "type": "event"
    },
    {
      "anonymous": false,
      "inputs": [
        {
          "indexed": true,
          "internalType": "address",
          "name": "previousOwner",
          "type": "address"
        },
        {
          "indexed": true,
          "internalType": "address",
          "name": "newOwner",
          "type": "address"
        }
      ],
      "name": "OwnershipTransferred",
      "type": "event"
    },
    {
      "anonymous": false,
      "inputs": [
        {
          "indexed": true,
          "internalType": "address",
          "name": "from",
          "type": "address"
        },
        {
          "indexed": true,
          "internalType": "address",
          "name": "to",
          "type": "address"
        },
        {
          "indexed": true,
          "internalType": "uint256",
          "name": "tokenId",
          "type": "uint256"
        }
      ],
      "name": "Transfer",
      "type": "event"
    },
    {
      "inputs": [
        {
          "internalType": "address",
          "name": "to",
          "type": "address"
        },
        {
          "internalType": "uint256",
          "name": "tokenId",
          "type": "uint256"
        }
      ],
      "name": "approve",
      "outputs": [],
      "stateMutability": "nonpayable",
      "type": "function"
    },
    {
      "inputs": [
        {
          "internalType": "address",
          "name": "owner",
          "type": "address"
        }
      ],
      "name": "balanceOf",
      "outputs": [
        {
          "internalType": "uint256",
          "name": "",
          "type": "uint256"
        }
      ],
      "stateMutability": "view",
      "type": "function"
    },
    {
      "inputs": [
        {
          "internalType": "uint256",
          "name": "tokenId",
          "type": "uint256"
        }
      ],
      "name": "getApproved",
      "outputs": [
        {
          "internalType": "address",
          "name": "",
          "type": "address"
        }
      ],
      "stateMutability": "view",
      "type": "function"
    },
    {
      "inputs": [
        {
          "internalType": "address",
          "name": "owner",
          "type": "address"
        },
        {
          "internalType": "address",
          "name": "operator",
          "type": "address"
        }
      ],
      "name": "isApprovedForAll",
      "outputs": [
        {
          "internalType": "bool",
          "name": "",
          "type": "bool"
        }
      ],
      "stateMutability": "view",
      "type": "function"
    },
    {
      "inputs": [
        {
          "internalType": "string",
          "name": "metadataURI",
          "type": "string"
        },
        {
          "internalType": "string",
          "name": "uniqueHash",
          "type": "string"
        }
      ],
      "name": "mintNFT",
      "outputs": [
        {
          "internalType": "uint256",
          "name": "",
          "type": "uint256"
        }
      ],
      "stateMutability": "payable",
      "type": "function"
    },
    {
      "inputs": [],
      "name": "mintingFee",
      "outputs": [
        {
          "internalType": "uint256",
          "name": "",
          "type": "uint256"
        }
      ],
      "stateMutability": "view",
      "type": "function"
    },
    {
      "inputs": [],
      "name": "name",
      "outputs": [
        {
          "internalType": "string",
          "name": "",
          "type": "string"
        }
      ],
      "stateMutability": "view",
      "type": "function"
    },
    {
      "inputs": [],
      "name": "owner",
      "outputs": [
        {
          "internalType": "address",
          "name": "",
          "type": "address"
        }
      ],
      "stateMutability": "view",
      "type": "function"
    },
    {
      "inputs": [
        {
          "internalType": "uint256",
          "name": "tokenId",
          "type": "uint256"
        }
      ],
      "name": "ownerOf",
      "outputs": [
        {
          "internalType": "address",
          "name": "",
          "type": "address"
        }
      ],
      "stateMutability": "view",
      "type": "function"
    },
    {
      "inputs": [],
      "name": "renounceOwnership",
      "outputs": [],
      "stateMutability": "nonpayable",
      "type": "function"
    },
    {
      "inputs": [
        {
          "internalType": "address",
          "name": "from",
          "type": "address"
        },
        {
          "internalType": "address",
          "name": "to",
          "type": "address"
        },
        {
          "internalType": "uint256",
          "name": "tokenId",
          "type": "uint256"
        }
      ],
      "name": "safeTransferFrom",
      "outputs": [],
      "stateMutability": "nonpayable",
      "type": "function"
    },
    {
      "inputs": [
        {
          "internalType": "address",
          "name": "from",
          "type": "address"
        },
        {
          "internalType": "address",
          "name": "to",
          "type": "address"
        },
        {
          "internalType": "uint256",
          "name": "tokenId",
          "type": "uint256"
        },
        {
          "internalType": "bytes",
          "name": "data",
          "type": "bytes"
        }
      ],
      "name": "safeTransferFrom",
      "outputs": [],
      "stateMutability": "nonpayable",
      "type": "function"
    },
    {
      "inputs": [
        {
          "internalType": "address",
          "name": "operator",
          "type": "address"
        },
        {
          "internalType": "bool",
          "name": "approved",
          "type": "bool"
        }
      ],
      "name": "setApprovalForAll",
      "outputs": [],
      "stateMutability": "nonpayable",
      "type": "function"
    },
    {
      "inputs": [
        {
          "internalType": "uint256",
          "name": "newFee",
          "type": "uint256"
        }
      ],
      "name": "setMintingFee",
      "outputs": [],
      "stateMutability": "nonpayable",
      "type": "function"
    },
    {
      "inputs": [
        {
          "internalType": "bytes4",
          "name": "interfaceId",
          "type": "bytes4"
        }
      ],
      "name": "supportsInterface",
      "outputs": [
        {
          "internalType": "bool",
          "name": "",
          "type": "bool"
        }
      ],
      "stateMutability": "view",
      "type": "function"
    },
    {
      "inputs": [],
      "name": "symbol",
      "outputs": [
        {
          "internalType": "string",
          "name": "",
          "type": "string"
        }
      ],
      "stateMutability": "view",
      "type": "function"
    },
    {
      "inputs": [
        {
          "internalType": "uint256",
          "name": "tokenId",
          "type": "uint256"
        }
      ],
      "name": "tokenURI",
      "outputs": [
        {
          "internalType": "string",
          "name": "",
          "type": "string"
        }
      ],
      "stateMutability": "view",
      "type": "function"
    },
    {
      "inputs": [
        {
          "internalType": "address",
          "name": "from",
          "type": "address"
        },
        {
          "internalType": "address",
          "name": "to",
          "type": "address"
        },
        {
          "internalType": "uint256",
          "name": "tokenId",
          "type": "uint256"
        }
      ],
      "name": "transferFrom",
      "outputs": [],
      "stateMutability": "nonpayable",
      "type": "function"
    },
    {
      "inputs": [
        {
          "internalType": "address",
          "name": "newOwner",
          "type": "address"
        }
      ],
      "name": "transferOwnership",
      "outputs": [],
      "stateMutability": "nonpayable",
      "type": "function"
    },
    {
      "inputs": [],
      "name": "withdrawFunds",
      "outputs": [],
      "stateMutability": "nonpayable",
      "type": "function"
    }
  ],
  "bytecode": "0x608060405234801561001057600080fd5b5060405161301d38038061301d83398181016040528101906100329190610259565b336040518060400160405280600a81526020017f4c6963656e73654e4654000000000000000000000000000000000000000000008152506040518060400160405280600481526020017f4c4e46540000000000000000000000000000000000000000000000000000000081525081600090816100ae91906104cc565b5080600190816100be91906104cc565b505050600073ffffffffffffffffffffffffffffffffffffffff168173ffffffffffffffffffffffffffffffffffffffff16036101335760006040517f1e4fbdf700000000000000000000000000000000000000000000000000000000815260040161012a91906105df565b60405180910390fd5b6101428161015860201b60201c565b50806009819055506000600881905550506105fa565b6000600760009054906101000a900473ffffffffffffffffffffffffffffffffffffffff16905081600760006101000a81548173ffffffffffffffffffffffffffffffffffffffff021916908373ffffffffffffffffffffffffffffffffffffffff1602179055508173ffffffffffffffffffffffffffffffffffffffff168173ffffffffffffffffffffffffffffffffffffffff167f8be0079c531659141344cd1fd0a4f28419497f9722a3daafe3b4186f6b6457e060405160405180910390a35050565b600080fd5b6000819050919050565b61023681610223565b811461024157600080fd5b50565b6000815190506102538161022d565b92915050565b60006020828403121561026f5761026e61021e565b5b600061027d84828501610244565b91505092915050565b600081519050919050565b7f4e487b7100000000000000000000000000000000000000000000000000000000600052604160045260246000fd5b7f4e487b7100000000000000000000000000000000000000000000000000000000600052602260045260246000fd5b6000600282049050600182168061030757607f821691505b60208210810361031a576103196102c0565b5b50919050565b60008190508160005260206000209050919050565b60006020601f8301049050919050565b600082821b905092915050565b6000600883026103827fffffffffffffffffffffffffffffffffffffffffffffffffffffffffffffffff82610345565b61038c8683610345565b95508019841693508086168417925050509392505050565b6000819050919050565b60006103c96103c46103bf84610223565b6103a4565b610223565b9050919050565b6000819050919050565b6103e3836103ae565b6103f76103ef826103d0565b848454610352565b825550505050565b600090565b61040c6103ff565b6104178184846103da565b505050565b5b8181101561043b57610430600082610404565b60018101905061041d565b5050565b601f8211156104805761045181610320565b61045a84610335565b81016020851015610469578190505b61047d61047585610335565b83018261041c565b50505b505050565b600082821c905092915050565b60006104a360001984600802610485565b1980831691505092915050565b60006104bc8383610492565b9150826002028217905092915050565b6104d582610286565b67ffffffffffffffff8111156104ee576104ed610291565b5b6104f882546102ef565b61050382828561043f565b600060209050601f8311600181146105365760008415610524578287015190505b61052e85826104b0565b865550610596565b601f19841661054486610320565b60005b8281101561056c57848901518255600182019150602085019450602081019050610547565b868310156105895784890151610585601f891682610492565b8355505b6001600288020188555050505b505050505050565b600073ffffffffffffffffffffffffffffffffffffffff82169050919050565b60006105c98261059e565b9050919050565b6105d9816105be565b82525050565b60006020820190506105f460008301846105d0565b92915050565b612a14806106096000396000f3fe60806040526004361061011f5760003560e01c806370a08231116100a0578063b88d4fde11610064578063b88d4fde146103bf578063c87b56dd146103e8578063e960554414610425578063e985e9c514610455578063f2fde38b146104925761011f565b806370a08231146102ec578063715018a6146103295780638da5cb5b1461034057806395d89b411461036b578063a22cb465146103965761011f565b806323b872dd116100e757806323b872dd1461021b57806324600fc31461024457806342842e0e1461025b5780635a64ad95146102845780636352211e146102af5761011f565b806301ffc9a71461012457806306fdde0314610161578063081812fc1461018c578063095ea7b3146101c9578063238a4709146101f2575b600080fd5b34801561013057600080fd5b5061014b60048036038101906101469190611d82565b6104bb565b6040516101589190611dca565b60405180910390f35b34801561016d57600080fd5b5061017661051c565b6040516101839190611e75565b60405180910390f35b34801561019857600080fd5b506101b360048036038101906101ae9190611ecd565b6105ae565b6040516101c09190611f3b565b60405180910390f35b3480156101d557600080fd5b506101f060048036038101906101eb9190611f82565b6105ca565b005b3480156101fe57600080fd5b5061021960048036038101906102149190611ecd565b6105e0565b005b34801561022757600080fd5b50610242600480360381019061023d9190611fc2565b6105f2565b005b34801561025057600080fd5b506102596106f4565b005b34801561026757600080fd5b50610282600480360381019061027d9190611fc2565b61074c565b005b34801561029057600080fd5b5061029961076c565b6040516102a69190612024565b60405180910390f35b3480156102bb57600080fd5b506102d660048036038101906102d19190611ecd565b610772565b6040516102e39190611f3b565b60405180910390f35b3480156102f857600080fd5b50610313600480360381019061030e919061203f565b610784565b6040516103209190612024565b60405180910390f35b34801561033557600080fd5b5061033e61083e565b005b34801561034c57600080fd5b50610355610852565b6040516103629190611f3b565b60405180910390f35b34801561037757600080fd5b5061038061087c565b60405161038d9190611e75565b60405180910390f35b3480156103a257600080fd5b506103bd60048036038101906103b89190612098565b61090e565b005b3480156103cb57600080fd5b506103e660048036038101906103e1919061220d565b610924565b005b3480156103f457600080fd5b5061040f600480360381019061040a9190611ecd565b610949565b60405161041c9190611e75565b60405180910390f35b61043f600480360381019061043a9190612331565b610a5c565b60405161044c9190612024565b60405180910390f35b34801561046157600080fd5b5061047c600480360381019061047791906123a9565b610bcd565b6040516104899190611dca565b60405180910390f35b34801561049e57600080fd5b506104b960048036038101906104b4919061203f565b610c61565b005b6000634906490660e01b7bffffffffffffffffffffffffffffffffffffffffffffffffffffffff1916827bffffffffffffffffffffffffffffffffffffffffffffffffffffffff19161480610515575061051482610ce7565b5b9050919050565b60606000805461052b90612418565b80601f016020809104026020016040519081016040528092919081815260200182805461055790612418565b80156105a45780601f10610579576101008083540402835291602001916105a4565b820191906000526020600020905b81548152906001019060200180831161058757829003601f168201915b5050505050905090565b60006105b982610dc9565b506105c382610e51565b9050919050565b6105dc82826105d7610e8e565b610e96565b5050565b6105e8610ea8565b8060098190555050565b600073ffffffffffffffffffffffffffffffffffffffff168273ffffffffffffffffffffffffffffffffffffffff16036106645760006040517f64a0ae9200000000000000000000000000000000000000000000000000000000815260040161065b9190611f3b565b60405180910390fd5b60006106788383610673610e8e565b610f2f565b90508373ffffffffffffffffffffffffffffffffffffffff168173ffffffffffffffffffffffffffffffffffffffff16146106ee578382826040517f64283d7b0000000000000000000000000000000000000000000000000000000081526004016106e593929190612449565b60405180910390fd5b50505050565b6106fc610ea8565b610704610852565b73ffffffffffffffffffffffffffffffffffffffff166108fc479081150290604051600060405180830381858888f19350505050158015610749573d6000803e3d6000fd5b50565b61076783838360405180602001604052806000815250610924565b505050565b60095481565b600061077d82610dc9565b9050919050565b60008073ffffffffffffffffffffffffffffffffffffffff168273ffffffffffffffffffffffffffffffffffffffff16036107f75760006040517f89c62b640000000000000000000000000000000000000000000000000000000081526004016107ee9190611f3b565b60405180910390fd5b600360008373ffffffffffffffffffffffffffffffffffffffff1673ffffffffffffffffffffffffffffffffffffffff168152602001908152602001600020549050919050565b610846610ea8565b6108506000611149565b565b6000600760009054906101000a900473ffffffffffffffffffffffffffffffffffffffff16905090565b60606001805461088b90612418565b80601f01602080910402602001604051908101604052809291908181526020018280546108b790612418565b80156109045780601f106108d957610100808354040283529160200191610904565b820191906000526020600020905b8154815290600101906020018083116108e757829003601f168201915b5050505050905090565b610920610919610e8e565b838361120f565b5050565b61092f8484846105f2565b61094361093a610e8e565b8585858561137e565b50505050565b606061095482610dc9565b50600060066000848152602001908152602001600020805461097590612418565b80601f01602080910402602001604051908101604052809291908181526020018280546109a190612418565b80156109ee5780601f106109c3576101008083540402835291602001916109ee565b820191906000526020600020905b8154815290600101906020018083116109d157829003601f168201915b5050505050905060006109ff61152f565b90506000815103610a14578192505050610a57565b600082511115610a49578082604051602001610a319291906124bc565b60405160208183030381529060405292505050610a57565b610a5284611546565b925050505b919050565b6000600954341015610aa3576040517f08c379a0000000000000000000000000000000000000000000000000000000008152600401610a9a9061252c565b60405180910390fd5b600a82604051610ab3919061254c565b908152602001604051809103902060009054906101000a900460ff1615610b0f576040517f08c379a0000000000000000000000000000000000000000000000000000000008152600401610b06906125d5565b60405180910390fd5b60086000815480929190600101919050555060006008549050610b3233826115af565b610b3c81856116a8565b6001600a84604051610b4e919061254c565b908152602001604051809103902060006101000a81548160ff0219169083151502179055503373ffffffffffffffffffffffffffffffffffffffff167fd35bb95e09c04b219e35047ce7b7b300e3384264ef84a40456943dbc0fc17c148286604051610bbb9291906125f5565b60405180910390a28091505092915050565b6000600560008473ffffffffffffffffffffffffffffffffffffffff1673ffffffffffffffffffffffffffffffffffffffff16815260200190815260200160002060008373ffffffffffffffffffffffffffffffffffffffff1673ffffffffffffffffffffffffffffffffffffffff16815260200190815260200160002060009054906101000a900460ff16905092915050565b610c69610ea8565b600073ffffffffffffffffffffffffffffffffffffffff168173ffffffffffffffffffffffffffffffffffffffff1603610cdb5760006040517f1e4fbdf7000000000000000000000000000000000000000000000000000000008152600401610cd29190611f3b565b60405180910390fd5b610ce481611149565b50565b60007f80ac58cd000000000000000000000000000000000000000000000000000000007bffffffffffffffffffffffffffffffffffffffffffffffffffffffff1916827bffffffffffffffffffffffffffffffffffffffffffffffffffffffff19161480610db257507f5b5e139f000000000000000000000000000000000000000000000000000000007bffffffffffffffffffffffffffffffffffffffffffffffffffffffff1916827bffffffffffffffffffffffffffffffffffffffffffffffffffffffff1916145b80610dc25750610dc182611704565b5b9050919050565b600080610dd58361176e565b9050600073ffffffffffffffffffffffffffffffffffffffff168173ffffffffffffffffffffffffffffffffffffffff1603610e4857826040517f7e273289000000000000000000000000000000000000000000000000000000008152600401610e3f9190612024565b60405180910390fd5b80915050919050565b60006004600083815260200190815260200160002060009054906101000a900473ffffffffffffffffffffffffffffffffffffffff169050919050565b600033905090565b610ea383838360016117ab565b505050565b610eb0610e8e565b73ffffffffffffffffffffffffffffffffffffffff16610ece610852565b73ffffffffffffffffffffffffffffffffffffffff1614610f2d57610ef1610e8e565b6040517f118cdaa7000000000000000000000000000000000000000000000000000000008152600401610f249190611f3b565b60405180910390fd5b565b600080610f3b8461176e565b9050600073ffffffffffffffffffffffffffffffffffffffff168373ffffffffffffffffffffffffffffffffffffffff1614610f7d57610f7c818486611970565b5b600073ffffffffffffffffffffffffffffffffffffffff168173ffffffffffffffffffffffffffffffffffffffff161461100e57610fbf6000856000806117ab565b6001600360008373ffffffffffffffffffffffffffffffffffffffff1673ffffffffffffffffffffffffffffffffffffffff168152602001908152602001600020600082825403925050819055505b600073ffffffffffffffffffffffffffffffffffffffff168573ffffffffffffffffffffffffffffffffffffffff1614611091576001600360008773ffffffffffffffffffffffffffffffffffffffff1673ffffffffffffffffffffffffffffffffffffffff168152602001908152602001600020600082825401925050819055505b846002600086815260200190815260200160002060006101000a81548173ffffffffffffffffffffffffffffffffffffffff021916908373ffffffffffffffffffffffffffffffffffffffff160217905550838573ffffffffffffffffffffffffffffffffffffffff168273ffffffffffffffffffffffffffffffffffffffff167fddf252ad1be2c89b69c2b068fc378daa952ba7f163c4a11628f55a4df523b3ef60405160405180910390a4809150509392505050565b6000600760009054906101000a900473ffffffffffffffffffffffffffffffffffffffff16905081600760006101000a81548173ffffffffffffffffffffffffffffffffffffffff021916908373ffffffffffffffffffffffffffffffffffffffff1602179055508173ffffffffffffffffffffffffffffffffffffffff168173ffffffffffffffffffffffffffffffffffffffff167f8be0079c531659141344cd1fd0a4f28419497f9722a3daafe3b4186f6b6457e060405160405180910390a35050565b600073ffffffffffffffffffffffffffffffffffffffff168273ffffffffffffffffffffffffffffffffffffffff160361128057816040517f5b08ba180000000000000000000000000000000000000000000000000000000081526004016112779190611f3b565b60405180910390fd5b80600560008573ffffffffffffffffffffffffffffffffffffffff1673ffffffffffffffffffffffffffffffffffffffff16815260200190815260200160002060008473ffffffffffffffffffffffffffffffffffffffff1673ffffffffffffffffffffffffffffffffffffffff16815260200190815260200160002060006101000a81548160ff0219169083151502179055508173ffffffffffffffffffffffffffffffffffffffff168373ffffffffffffffffffffffffffffffffffffffff167f17307eab39ab6107e8899845ad3d59bd9653f200f220920489ca2b5937696c31836040516113719190611dca565b60405180910390a3505050565b60008373ffffffffffffffffffffffffffffffffffffffff163b1115611528578273ffffffffffffffffffffffffffffffffffffffff1663150b7a02868685856040518563ffffffff1660e01b81526004016113dd949392919061267a565b6020604051808303816000875af192505050801561141957506040513d601f19601f8201168201806040525081019061141691906126db565b60015b61149d573d8060008114611449576040519150601f19603f3d011682016040523d82523d6000602084013e61144e565b606091505b50600081510361149557836040517f64a0ae9200000000000000000000000000000000000000000000000000000000815260040161148c9190611f3b565b60405180910390fd5b805181602001fd5b63150b7a0260e01b7bffffffffffffffffffffffffffffffffffffffffffffffffffffffff1916817bffffffffffffffffffffffffffffffffffffffffffffffffffffffff19161461152657836040517f64a0ae9200000000000000000000000000000000000000000000000000000000815260040161151d9190611f3b565b60405180910390fd5b505b5050505050565b606060405180602001604052806000815250905090565b606061155182610dc9565b50600061155c61152f565b9050600081511161157c57604051806020016040528060008152506115a7565b8061158684611a34565b6040516020016115979291906124bc565b6040516020818303038152906040525b915050919050565b600073ffffffffffffffffffffffffffffffffffffffff168273ffffffffffffffffffffffffffffffffffffffff16036116215760006040517f64a0ae920000000000000000000000000000000000000000000000000000000081526004016116189190611f3b565b60405180910390fd5b600061162f83836000610f2f565b9050600073ffffffffffffffffffffffffffffffffffffffff168173ffffffffffffffffffffffffffffffffffffffff16146116a35760006040517f73c6ac6e00000000000000000000000000000000000000000000000000000000815260040161169a9190611f3b565b60405180910390fd5b505050565b806006600084815260200190815260200160002090816116c891906128b4565b507ff8e1a15aba9398e019f0b49df1a4fde98ee17ae345cb5f6b5e2c27f5033e8ce7826040516116f89190612024565b60405180910390a15050565b60007f01ffc9a7000000000000000000000000000000000000000000000000000000007bffffffffffffffffffffffffffffffffffffffffffffffffffffffff1916827bffffffffffffffffffffffffffffffffffffffffffffffffffffffff1916149050919050565b60006002600083815260200190815260200160002060009054906101000a900473ffffffffffffffffffffffffffffffffffffffff169050919050565b80806117e45750600073ffffffffffffffffffffffffffffffffffffffff168273ffffffffffffffffffffffffffffffffffffffff1614155b156119185760006117f484610dc9565b9050600073ffffffffffffffffffffffffffffffffffffffff168373ffffffffffffffffffffffffffffffffffffffff161415801561185f57508273ffffffffffffffffffffffffffffffffffffffff168173ffffffffffffffffffffffffffffffffffffffff1614155b801561187257506118708184610bcd565b155b156118b457826040517fa9fbf51f0000000000000000000000000000000000000000000000000000000081526004016118ab9190611f3b565b60405180910390fd5b811561191657838573ffffffffffffffffffffffffffffffffffffffff168273ffffffffffffffffffffffffffffffffffffffff167f8c5be1e5ebec7d5bd14f71427d1e84f3dd0314c0f7b2291e5b200ac8c7c3b92560405160405180910390a45b505b836004600085815260200190815260200160002060006101000a81548173ffffffffffffffffffffffffffffffffffffffff021916908373ffffffffffffffffffffffffffffffffffffffff16021790555050505050565b61197b838383611b02565b611a2f57600073ffffffffffffffffffffffffffffffffffffffff168373ffffffffffffffffffffffffffffffffffffffff16036119f057806040517f7e2732890000000000000000000000000000000000000000000000000000000081526004016119e79190612024565b60405180910390fd5b81816040517f177e802f000000000000000000000000000000000000000000000000000000008152600401611a26929190612986565b60405180910390fd5b505050565b606060006001611a4384611bc3565b01905060008167ffffffffffffffff811115611a6257611a616120e2565b5b6040519080825280601f01601f191660200182016040528015611a945781602001600182028036833780820191505090505b509050600082602001820190505b600115611af7578080600190039150507f3031323334353637383961626364656600000000000000000000000000000000600a86061a8153600a8581611aeb57611aea6129af565b5b04945060008503611aa2575b819350505050919050565b60008073ffffffffffffffffffffffffffffffffffffffff168373ffffffffffffffffffffffffffffffffffffffff1614158015611bba57508273ffffffffffffffffffffffffffffffffffffffff168473ffffffffffffffffffffffffffffffffffffffff161480611b7b5750611b7a8484610bcd565b5b80611bb957508273ffffffffffffffffffffffffffffffffffffffff16611ba183610e51565b73ffffffffffffffffffffffffffffffffffffffff16145b5b90509392505050565b600080600090507a184f03e93ff9f4daa797ed6e38ed64bf6a1f0100000000000000008310611c21577a184f03e93ff9f4daa797ed6e38ed64bf6a1f0100000000000000008381611c1757611c166129af565b5b0492506040810190505b6d04ee2d6d415b85acef81000000008310611c5e576d04ee2d6d415b85acef81000000008381611c5457611c536129af565b5b0492506020810190505b662386f26fc100008310611c8d57662386f26fc100008381611c8357611c826129af565b5b0492506010810190505b6305f5e1008310611cb6576305f5e1008381611cac57611cab6129af565b5b0492506008810190505b6127108310611cdb576127108381611cd157611cd06129af565b5b0492506004810190505b60648310611cfe5760648381611cf457611cf36129af565b5b0492506002810190505b600a8310611d0d576001810190505b80915050919050565b6000604051905090565b600080fd5b600080fd5b60007fffffffff0000000000000000000000000000000000000000000000000000000082169050919050565b611d5f81611d2a565b8114611d6a57600080fd5b50565b600081359050611d7c81611d56565b92915050565b600060208284031215611d9857611d97611d20565b5b6000611da684828501611d6d565b91505092915050565b60008115159050919050565b611dc481611daf565b82525050565b6000602082019050611ddf6000830184611dbb565b92915050565b600081519050919050565b600082825260208201905092915050565b60005b83811015611e1f578082015181840152602081019050611e04565b60008484015250505050565b6000601f19601f8301169050919050565b6000611e4782611de5565b611e518185611df0565b9350611e61818560208601611e01565b611e6a81611e2b565b840191505092915050565b60006020820190508181036000830152611e8f8184611e3c565b905092915050565b6000819050919050565b611eaa81611e97565b8114611eb557600080fd5b50565b600081359050611ec781611ea1565b92915050565b600060208284031215611ee357611ee2611d20565b5b6000611ef184828501611eb8565b91505092915050565b600073ffffffffffffffffffffffffffffffffffffffff82169050919050565b6000611f2582611efa565b9050919050565b611f3581611f1a565b82525050565b6000602082019050611f506000830184611f2c565b92915050565b611f5f81611f1a565b8114611f6a57600080fd5b50565b600081359050611f7c81611f56565b92915050565b60008060408385031215611f9957611f98611d20565b5b6000611fa785828601611f6d565b9250506020611fb885828601611eb8565b9150509250929050565b600080600060608486031215611fdb57611fda611d20565b5b6000611fe986828701611f6d565b9350506020611ffa86828701611f6d565b925050604061200b86828701611eb8565b9150509250925092565b61201e81611e97565b82525050565b60006020820190506120396000830184612015565b92915050565b60006020828403121561205557612054611d20565b5b600061206384828501611f6d565b91505092915050565b61207581611daf565b811461208057600080fd5b50565b6000813590506120928161206c565b92915050565b600080604083850312156120af576120ae611d20565b5b60006120bd85828601611f6d565b92505060206120ce85828601612083565b9150509250929050565b600080fd5b600080fd5b7f4e487b7100000000000000000000000000000000000000000000000000000000600052604160045260246000fd5b61211a82611e2b565b810181811067ffffffffffffffff82111715612139576121386120e2565b5b80604052505050565b600061214c611d16565b90506121588282612111565b919050565b600067ffffffffffffffff821115612178576121776120e2565b5b61218182611e2b565b9050602081019050919050565b82818337600083830152505050565b60006121b06121ab8461215d565b612142565b9050828152602081018484840111156121cc576121cb6120dd565b5b6121d784828561218e565b509392505050565b600082601f8301126121f4576121f36120d8565b5b813561220484826020860161219d565b91505092915050565b6000806000806080858703121561222757612226611d20565b5b600061223587828801611f6d565b945050602061224687828801611f6d565b935050604061225787828801611eb8565b925050606085013567ffffffffffffffff81111561227857612277611d25565b5b612284878288016121df565b91505092959194509250565b600067ffffffffffffffff8211156122ab576122aa6120e2565b5b6122b482611e2b565b9050602081019050919050565b60006122d46122cf84612290565b612142565b9050828152602081018484840111156122f0576122ef6120dd565b5b6122fb84828561218e565b509392505050565b600082601f830112612318576123176120d8565b5b81356123288482602086016122c1565b91505092915050565b6000806040838503121561234857612347611d20565b5b600083013567ffffffffffffffff81111561236657612365611d25565b5b61237285828601612303565b925050602083013567ffffffffffffffff81111561239357612392611d25565b5b61239f85828601612303565b9150509250929050565b600080604083850312156123c0576123bf611d20565b5b60006123ce85828601611f6d565b92505060206123df85828601611f6d565b9150509250929050565b7f4e487b7100000000000000000000000000000000000000000000000000000000600052602260045260246000fd5b6000600282049050600182168061243057607f821691505b602082108103612443576124426123e9565b5b50919050565b600060608201905061245e6000830186611f2c565b61246b6020830185612015565b6124786040830184611f2c565b949350505050565b600081905092915050565b600061249682611de5565b6124a08185612480565b93506124b0818560208601611e01565b80840191505092915050565b60006124c8828561248b565b91506124d4828461248b565b91508190509392505050565b7f496e73756666696369656e742045544820666f72206d696e74696e6700000000600082015250565b6000612516601c83611df0565b9150612521826124e0565b602082019050919050565b6000602082019050818103600083015261254581612509565b9050919050565b6000612558828461248b565b915081905092915050565b7f4e465420616c72656164792065786973747320666f72207468697320646f637560008201527f6d656e7400000000000000000000000000000000000000000000000000000000602082015250565b60006125bf602483611df0565b91506125ca82612563565b604082019050919050565b600060208201905081810360008301526125ee816125b2565b9050919050565b600060408201905061260a6000830185612015565b818103602083015261261c8184611e3c565b90509392505050565b600081519050919050565b600082825260208201905092915050565b600061264c82612625565b6126568185612630565b9350612666818560208601611e01565b61266f81611e2b565b840191505092915050565b600060808201905061268f6000830187611f2c565b61269c6020830186611f2c565b6126a96040830185612015565b81810360608301526126bb8184612641565b905095945050505050565b6000815190506126d581611d56565b92915050565b6000602082840312156126f1576126f0611d20565b5b60006126ff848285016126c6565b91505092915050565b60008190508160005260206000209050919050565b60006020601f8301049050919050565b600082821b905092915050565b60006008830261276a7fffffffffffffffffffffffffffffffffffffffffffffffffffffffffffffffff8261272d565b612774868361272d565b95508019841693508086168417925050509392505050565b6000819050919050565b60006127b16127ac6127a784611e97565b61278c565b611e97565b9050919050565b6000819050919050565b6127cb83612796565b6127df6127d7826127b8565b84845461273a565b825550505050565b600090565b6127f46127e7565b6127ff8184846127c2565b505050565b5b81811015612823576128186000826127ec565b600181019050612805565b5050565b601f8211156128685761283981612708565b6128428461271d565b81016020851015612851578190505b61286561285d8561271d565b830182612804565b50505b505050565b600082821c905092915050565b600061288b6000198460080261286d565b1980831691505092915050565b60006128a4838361287a565b9150826002028217905092915050565b6128bd82611de5565b67ffffffffffffffff8111156128d6576128d56120e2565b5b6128e08254612418565b6128eb828285612827565b600060209050601f83116001811461291e576000841561290c578287015190505b6129168582612898565b86555061297e565b601f19841661292c86612708565b60005b828110156129545784890151825560018201915060208501945060208101905061292f565b86831015612971578489015161296d601f89168261287a565b8355505b6001600288020188555050505b505050505050565b600060408201905061299b6000830185611f2c565b6129a86020830184612015565b9392505050565b7f4e487b7100000000000000000000000000000000000000000000000000000000600052601260045260246000fdfea264697066735822122071383e667e3149b4aabc52938b2d044d8e163c65d6bbfff4002367df59cf765f64736f6c634300081c0033",
  "linkReferences": {},
  "deployedLinkReferences": {}
}