{"contracts/GreenCard.sol":{"GreenCardHashes":{"abi":[{"anonymous":false,"inputs":[{"indexed":false,"internalType":"string","name":"id","type":"string"},{"indexed":false,"internalType":"string","name":"hash","type":"string"},{"indexed":false,"internalType":"uint256","name":"timestamp","type":"uint256"}],"name":"HashStored","type":"event"},{"inputs":[{"internalType":"string","name":"id","type":"string"}],"name":"getHash","outputs":[{"internalType":"string","name":"","type":"string"},{"internalType":"uint256","name":"","type":"uint256"}],"stateMutability":"view","type":"function"},{"inputs":[{"internalType":"string","name":"id","type":"string"},{"internalType":"string","name":"hash","type":"string"}],"name":"storeHash","outputs":[],"stateMutability":"nonpayable","type":"function"},{"inputs":[{"internalType":"string","name":"id","type":"string"},{"internalType":"string","name":"hash","type":"string"}],"name":"verifyHash","outputs":[{"internalType":"bool","name":"","type":"bool"}],"stateMutability":"view","type":"function"}],"evm":{"bytecode":{"linkReferences":{},"object":"6080604052348015600f57600080fd5b50610d578061001f6000396000f3fe608060405234801561001057600080fd5b50600436106100415760003560e01c8063258b85d4146100465780635b6beeb9146100765780636f28ee09146100a7575b600080fd5b610060600480360381019061005b91906105a2565b6100c3565b60405161006d9190610635565b60405180910390f35b610090600480360381019061008b9190610650565b6101ab565b60405161009e929190610731565b60405180910390f35b6100c160048036038101906100bc91906105a2565b6102fa565b005b6000806000846040516100d6919061079d565b908152602001604051809103902060000180546100f2906107e3565b905011610134576040517f08c379a000000000000000000000000000000000000000000000000000000000815260040161012b90610860565b60405180910390fd5b81604051602001610145919061079d565b6040516020818303038152906040528051906020012060008460405161016b919061079d565b908152602001604051809103902060000160405160200161018c9190610918565b6040516020818303038152906040528051906020012014905092915050565b60606000806000846040516101c0919061079d565b908152602001604051809103902060000180546101dc906107e3565b90501161021e576040517f08c379a00000000000000000000000000000000000000000000000000000000081526004016102159061097b565b60405180910390fd5b6000808460405161022f919061079d565b9081526020016040518091039020604051806040016040529081600082018054610258906107e3565b80601f0160208091040260200160405190810160405280929190818152602001828054610284906107e3565b80156102d15780601f106102a6576101008083540402835291602001916102d1565b820191906000526020600020905b8154815290600101906020018083116102b457829003601f168201915b505050505081526020016001820154815250509050806000015181602001519250925050915091565b6000808360405161030b919061079d565b90815260200160405180910390206000018054610327906107e3565b905014610369576040517f08c379a0000000000000000000000000000000000000000000000000000000008152600401610360906109e7565b60405180910390fd5b60008151116103ad576040517f08c379a00000000000000000000000000000000000000000000000000000000081526004016103a490610a53565b60405180910390fd5b60004290506040518060400160405280838152602001828152506000846040516103d7919061079d565b908152602001604051809103902060008201518160000190816103fa9190610c0a565b50602082015181600101559050507fa0e74deee554563b6b60943f7c6686d895986ae9e54a55f2648e455dd04c402883838360405161043b93929190610cdc565b60405180910390a1505050565b6000604051905090565b600080fd5b600080fd5b600080fd5b600080fd5b6000601f19601f8301169050919050565b7f4e487b7100000000000000000000000000000000000000000000000000000000600052604160045260246000fd5b6104af82610466565b810181811067ffffffffffffffff821117156104ce576104cd610477565b5b80604052505050565b60006104e1610448565b90506104ed82826104a6565b919050565b600067ffffffffffffffff82111561050d5761050c610477565b5b61051682610466565b9050602081019050919050565b82818337600083830152505050565b6000610545610540846104f2565b6104d7565b90508281526020810184848401111561056157610560610461565b5b61056c848285610523565b509392505050565b600082601f8301126105895761058861045c565b5b8135610599848260208601610532565b91505092915050565b600080604083850312156105b9576105b8610452565b5b600083013567ffffffffffffffff8111156105d7576105d6610457565b5b6105e385828601610574565b925050602083013567ffffffffffffffff81111561060457610603610457565b5b61061085828601610574565b9150509250929050565b60008115159050919050565b61062f8161061a565b82525050565b600060208201905061064a6000830184610626565b92915050565b60006020828403121561066657610665610452565b5b600082013567ffffffffffffffff81111561068457610683610457565b5b61069084828501610574565b91505092915050565b600081519050919050565b600082825260208201905092915050565b60005b838110156106d35780820151818401526020810190506106b8565b60008484015250505050565b60006106ea82610699565b6106f481856106a4565b93506107048185602086016106b5565b61070d81610466565b840191505092915050565b6000819050919050565b61072b81610718565b82525050565b6000604082019050818103600083015261074b81856106df565b905061075a6020830184610722565b9392505050565b600081905092915050565b600061077782610699565b6107818185610761565b93506107918185602086016106b5565b80840191505092915050565b60006107a9828461076c565b915081905092915050565b7f4e487b7100000000000000000000000000000000000000000000000000000000600052602260045260246000fd5b600060028204905060018216806107fb57607f821691505b60208210810361080e5761080d6107b4565b5b50919050565b7f48617368206e6f7420666f756e6420666f7220746869732049442e0000000000600082015250565b600061084a601b836106a4565b915061085582610814565b602082019050919050565b600060208201905081810360008301526108798161083d565b9050919050565b60008190508160005260206000209050919050565b600081546108a2816107e3565b6108ac8186610761565b945060018216600081146108c757600181146108dc5761090f565b60ff198316865281151582028601935061090f565b6108e585610880565b60005b83811015610907578154818901526001820191506020810190506108e8565b838801955050505b50505092915050565b60006109248284610895565b915081905092915050565b7f4861736820646f6573206e6f742065786973742e000000000000000000000000600082015250565b60006109656014836106a4565b91506109708261092f565b602082019050919050565b6000602082019050818103600083015261099481610958565b9050919050565b7f4861736820616c7265616479206578697374732e000000000000000000000000600082015250565b60006109d16014836106a4565b91506109dc8261099b565b602082019050919050565b60006020820190508181036000830152610a00816109c4565b9050919050565b7f486173682063616e6e6f7420626520656d7074792e0000000000000000000000600082015250565b6000610a3d6015836106a4565b9150610a4882610a07565b602082019050919050565b60006020820190508181036000830152610a6c81610a30565b9050919050565b60006020601f8301049050919050565b600082821b905092915050565b600060088302610ac07fffffffffffffffffffffffffffffffffffffffffffffffffffffffffffffffff82610a83565b610aca8683610a83565b95508019841693508086168417925050509392505050565b6000819050919050565b6000610b07610b02610afd84610718565b610ae2565b610718565b9050919050565b6000819050919050565b610b2183610aec565b610b35610b2d82610b0e565b848454610a90565b825550505050565b600090565b610b4a610b3d565b610b55818484610b18565b505050565b5b81811015610b7957610b6e600082610b42565b600181019050610b5b565b5050565b601f821115610bbe57610b8f81610880565b610b9884610a73565b81016020851015610ba7578190505b610bbb610bb385610a73565b830182610b5a565b50505b505050565b600082821c905092915050565b6000610be160001984600802610bc3565b1980831691505092915050565b6000610bfa8383610bd0565b9150826002028217905092915050565b610c1382610699565b67ffffffffffffffff811115610c2c57610c2b610477565b5b610c3682546107e3565b610c41828285610b7d565b600060209050601f831160018114610c745760008415610c62578287015190505b610c6c8582610bee565b865550610cd4565b601f198416610c8286610880565b60005b82811015610caa57848901518255600182019150602085019450602081019050610c85565b86831015610cc75784890151610cc3601f891682610bd0565b8355505b6001600288020188555050505b505050505050565b60006060820190508181036000830152610cf681866106df565b90508181036020830152610d0a81856106df565b9050610d196040830184610722565b94935050505056fea264697066735822122030567531dd50d327ff993030bf2ffa7e1e0c6ab5348638996b353c167652d53864736f6c634300081c0033","opcodes":"PUSH1 0x80 PUSH1 0x40 MSTORE CALLVALUE DUP1 ISZERO PUSH1 0xF JUMPI PUSH1 0x0 DUP1 REVERT JUMPDEST POP PUSH2 0xD57 DUP1 PUSH2 0x1F PUSH1 0x0 CODECOPY PUSH1 0x0 RETURN INVALID PUSH1 0x80 PUSH1 0x40 MSTORE CALLVALUE DUP1 ISZERO PUSH2 0x10 JUMPI PUSH1 0x0 DUP1 REVERT JUMPDEST POP PUSH1 0x4 CALLDATASIZE LT PUSH2 0x41 JUMPI PUSH1 0x0 CALLDATALOAD PUSH1 0xE0 SHR DUP1 PUSH4 0x258B85D4 EQ PUSH2 0x46 JUMPI DUP1 PUSH4 0x5B6BEEB9 EQ PUSH2 0x76 JUMPI DUP1 PUSH4 0x6F28EE09 EQ PUSH2 0xA7 JUMPI JUMPDEST PUSH1 0x0 DUP1 REVERT JUMPDEST PUSH2 0x60 PUSH1 0x4 DUP1 CALLDATASIZE SUB DUP2 ADD SWAP1 PUSH2 0x5B SWAP2 SWAP1 PUSH2 0x5A2 JUMP JUMPDEST PUSH2 0xC3 JUMP JUMPDEST PUSH1 0x40 MLOAD PUSH2 0x6D SWAP2 SWAP1 PUSH2 0x635 JUMP JUMPDEST PUSH1 0x40 MLOAD DUP1 SWAP2 SUB SWAP1 RETURN JUMPDEST PUSH2 0x90 PUSH1 0x4 DUP1 CALLDATASIZE SUB DUP2 ADD SWAP1 PUSH2 0x8B SWAP2 SWAP1 PUSH2 0x650 JUMP JUMPDEST PUSH2 0x1AB JUMP JUMPDEST PUSH1 0x40 MLOAD PUSH2 0x9E SWAP3 SWAP2 SWAP1 PUSH2 0x731 JUMP JUMPDEST PUSH1 0x40 MLOAD DUP1 SWAP2 SUB SWAP1 RETURN JUMPDEST PUSH2 0xC1 PUSH1 0x4 DUP1 CALLDATASIZE SUB DUP2 ADD SWAP1 PUSH2 0xBC SWAP2 SWAP1 PUSH2 0x5A2 JUMP JUMPDEST PUSH2 0x2FA JUMP JUMPDEST STOP JUMPDEST PUSH1 0x0 DUP1 PUSH1 0x0 DUP5 PUSH1 0x40 MLOAD PUSH2 0xD6 SWAP2 SWAP1 PUSH2 0x79D JUMP JUMPDEST SWAP1 DUP2 MSTORE PUSH1 0x20 ADD PUSH1 0x40 MLOAD DUP1 SWAP2 SUB SWAP1 KECCAK256 PUSH1 0x0 ADD DUP1 SLOAD PUSH2 0xF2 SWAP1 PUSH2 0x7E3 JUMP JUMPDEST SWAP1 POP GT PUSH2 0x134 JUMPI PUSH1 0x40 MLOAD PUSH32 0x8C379A000000000000000000000000000000000000000000000000000000000 DUP2 MSTORE PUSH1 0x4 ADD PUSH2 0x12B SWAP1 PUSH2 0x860 JUMP JUMPDEST PUSH1 0x40 MLOAD DUP1 SWAP2 SUB SWAP1 REVERT JUMPDEST DUP2 PUSH1 0x40 MLOAD PUSH1 0x20 ADD PUSH2 0x145 SWAP2 SWAP1 PUSH2 0x79D JUMP JUMPDEST PUSH1 0x40 MLOAD PUSH1 0x20 DUP2 DUP4 SUB SUB DUP2 MSTORE SWAP1 PUSH1 0x40 MSTORE DUP1 MLOAD SWAP1 PUSH1 0x20 ADD KECCAK256 PUSH1 0x0 DUP5 PUSH1 0x40 MLOAD PUSH2 0x16B SWAP2 SWAP1 PUSH2 0x79D JUMP JUMPDEST SWAP1 DUP2 MSTORE PUSH1 0x20 ADD PUSH1 0x40 MLOAD DUP1 SWAP2 SUB SWAP1 KECCAK256 PUSH1 0x0 ADD PUSH1 0x40 MLOAD PUSH1 0x20 ADD PUSH2 0x18C SWAP2 SWAP1 PUSH2 0x918 JUMP JUMPDEST PUSH1 0x40 MLOAD PUSH1 0x20 DUP2 DUP4 SUB SUB DUP2 MSTORE SWAP1 PUSH1 0x40 MSTORE DUP1 MLOAD SWAP1 PUSH1 0x20 ADD KECCAK256 EQ SWAP1 POP SWAP3 SWAP2 POP POP JUMP JUMPDEST PUSH1 0x60 PUSH1 0x0 DUP1 PUSH1 0x0 DUP5 PUSH1 0x40 MLOAD PUSH2 0x1C0 SWAP2 SWAP1 PUSH2 0x79D JUMP JUMPDEST SWAP1 DUP2 MSTORE PUSH1 0x20 ADD PUSH1 0x40 MLOAD DUP1 SWAP2 SUB SWAP1 KECCAK256 PUSH1 0x0 ADD DUP1 SLOAD PUSH2 0x1DC SWAP1 PUSH2 0x7E3 JUMP JUMPDEST SWAP1 POP GT PUSH2 0x21E JUMPI PUSH1 0x40 MLOAD PUSH32 0x8C379A000000000000000000000000000000000000000000000000000000000 DUP2 MSTORE PUSH1 0x4 ADD PUSH2 0x215 SWAP1 PUSH2 0x97B JUMP JUMPDEST PUSH1 0x40 MLOAD DUP1 SWAP2 SUB SWAP1 REVERT JUMPDEST PUSH1 0x0 DUP1 DUP5 PUSH1 0x40 MLOAD PUSH2 0x22F SWAP2 SWAP1 PUSH2 0x79D JUMP JUMPDEST SWAP1 DUP2 MSTORE PUSH1 0x20 ADD PUSH1 0x40 MLOAD DUP1 SWAP2 SUB SWAP1 KECCAK256 PUSH1 0x40 MLOAD DUP1 PUSH1 0x40 ADD PUSH1 0x40 MSTORE SWAP1 DUP2 PUSH1 0x0 DUP3 ADD DUP1 SLOAD PUSH2 0x258 SWAP1 PUSH2 0x7E3 JUMP JUMPDEST DUP1 PUSH1 0x1F ADD PUSH1 0x20 DUP1 SWAP2 DIV MUL PUSH1 0x20 ADD PUSH1 0x40 MLOAD SWAP1 DUP2 ADD PUSH1 0x40 MSTORE DUP1 SWAP3 SWAP2 SWAP1 DUP2 DUP2 MSTORE PUSH1 0x20 ADD DUP3 DUP1 SLOAD PUSH2 0x284 SWAP1 PUSH2 0x7E3 JUMP JUMPDEST DUP1 ISZERO PUSH2 0x2D1 JUMPI DUP1 PUSH1 0x1F LT PUSH2 0x2A6 JUMPI PUSH2 0x100 DUP1 DUP4 SLOAD DIV MUL DUP4 MSTORE SWAP2 PUSH1 0x20 ADD SWAP2 PUSH2 0x2D1 JUMP JUMPDEST DUP3 ADD SWAP2 SWAP1 PUSH1 0x0 MSTORE PUSH1 0x20 PUSH1 0x0 KECCAK256 SWAP1 JUMPDEST DUP2 SLOAD DUP2 MSTORE SWAP1 PUSH1 0x1 ADD SWAP1 PUSH1 0x20 ADD DUP1 DUP4 GT PUSH2 0x2B4 JUMPI DUP3 SWAP1 SUB PUSH1 0x1F AND DUP3 ADD SWAP2 JUMPDEST POP POP POP POP POP DUP2 MSTORE PUSH1 0x20 ADD PUSH1 0x1 DUP3 ADD SLOAD DUP2 MSTORE POP POP SWAP1 POP DUP1 PUSH1 0x0 ADD MLOAD DUP2 PUSH1 0x20 ADD MLOAD SWAP3 POP SWAP3 POP POP SWAP2 POP SWAP2 JUMP JUMPDEST PUSH1 0x0 DUP1 DUP4 PUSH1 0x40 MLOAD PUSH2 0x30B SWAP2 SWAP1 PUSH2 0x79D JUMP JUMPDEST SWAP1 DUP2 MSTORE PUSH1 0x20 ADD PUSH1 0x40 MLOAD DUP1 SWAP2 SUB SWAP1 KECCAK256 PUSH1 0x0 ADD DUP1 SLOAD PUSH2 0x327 SWAP1 PUSH2 0x7E3 JUMP JUMPDEST SWAP1 POP EQ PUSH2 0x369 JUMPI PUSH1 0x40 MLOAD PUSH32 0x8C379A000000000000000000000000000000000000000000000000000000000 DUP2 MSTORE PUSH1 0x4 ADD PUSH2 0x360 SWAP1 PUSH2 0x9E7 JUMP JUMPDEST PUSH1 0x40 MLOAD DUP1 SWAP2 SUB SWAP1 REVERT JUMPDEST PUSH1 0x0 DUP2 MLOAD GT PUSH2 0x3AD JUMPI PUSH1 0x40 MLOAD PUSH32 0x8C379A000000000000000000000000000000000000000000000000000000000 DUP2 MSTORE PUSH1 0x4 ADD PUSH2 0x3A4 SWAP1 PUSH2 0xA53 JUMP JUMPDEST PUSH1 0x40 MLOAD DUP1 SWAP2 SUB SWAP1 REVERT JUMPDEST PUSH1 0x0 TIMESTAMP SWAP1 POP PUSH1 0x40 MLOAD DUP1 PUSH1 0x40 ADD PUSH1 0x40 MSTORE DUP1 DUP4 DUP2 MSTORE PUSH1 0x20 ADD DUP3 DUP2 MSTORE POP PUSH1 0x0 DUP5 PUSH1 0x40 MLOAD PUSH2 0x3D7 SWAP2 SWAP1 PUSH2 0x79D JUMP JUMPDEST SWAP1 DUP2 MSTORE PUSH1 0x20 ADD PUSH1 0x40 MLOAD DUP1 SWAP2 SUB SWAP1 KECCAK256 PUSH1 0x0 DUP3 ADD MLOAD DUP2 PUSH1 0x0 ADD SWAP1 DUP2 PUSH2 0x3FA SWAP2 SWAP1 PUSH2 0xC0A JUMP JUMPDEST POP PUSH1 0x20 DUP3 ADD MLOAD DUP2 PUSH1 0x1 ADD SSTORE SWAP1 POP POP PUSH32 0xA0E74DEEE554563B6B60943F7C6686D895986AE9E54A55F2648E455DD04C4028 DUP4 DUP4 DUP4 PUSH1 0x40 MLOAD PUSH2 0x43B SWAP4 SWAP3 SWAP2 SWAP1 PUSH2 0xCDC JUMP JUMPDEST PUSH1 0x40 MLOAD DUP1 SWAP2 SUB SWAP1 LOG1 POP POP POP JUMP JUMPDEST PUSH1 0x0 PUSH1 0x40 MLOAD SWAP1 POP SWAP1 JUMP JUMPDEST PUSH1 0x0 DUP1 REVERT JUMPDEST PUSH1 0x0 DUP1 REVERT JUMPDEST PUSH1 0x0 DUP1 REVERT JUMPDEST PUSH1 0x0 DUP1 REVERT JUMPDEST PUSH1 0x0 PUSH1 0x1F NOT PUSH1 0x1F DUP4 ADD AND SWAP1 POP SWAP2 SWAP1 POP JUMP JUMPDEST PUSH32 0x4E487B7100000000000000000000000000000000000000000000000000000000 PUSH1 0x0 MSTORE PUSH1 0x41 PUSH1 0x4 MSTORE PUSH1 0x24 PUSH1 0x0 REVERT JUMPDEST PUSH2 0x4AF DUP3 PUSH2 0x466 JUMP JUMPDEST DUP2 ADD DUP2 DUP2 LT PUSH8 0xFFFFFFFFFFFFFFFF DUP3 GT OR ISZERO PUSH2 0x4CE JUMPI PUSH2 0x4CD PUSH2 0x477 JUMP JUMPDEST JUMPDEST DUP1 PUSH1 0x40 MSTORE POP POP POP JUMP JUMPDEST PUSH1 0x0 PUSH2 0x4E1 PUSH2 0x448 JUMP JUMPDEST SWAP1 POP PUSH2 0x4ED DUP3 DUP3 PUSH2 0x4A6 JUMP JUMPDEST SWAP2 SWAP1 POP JUMP JUMPDEST PUSH1 0x0 PUSH8 0xFFFFFFFFFFFFFFFF DUP3 GT ISZERO PUSH2 0x50D JUMPI PUSH2 0x50C PUSH2 0x477 JUMP JUMPDEST JUMPDEST PUSH2 0x516 DUP3 PUSH2 0x466 JUMP JUMPDEST SWAP1 POP PUSH1 0x20 DUP2 ADD SWAP1 POP SWAP2 SWAP1 POP JUMP JUMPDEST DUP3 DUP2 DUP4 CALLDATACOPY PUSH1 0x0 DUP4 DUP4 ADD MSTORE POP POP POP JUMP JUMPDEST PUSH1 0x0 PUSH2 0x545 PUSH2 0x540 DUP5 PUSH2 0x4F2 JUMP JUMPDEST PUSH2 0x4D7 JUMP JUMPDEST SWAP1 POP DUP3 DUP2 MSTORE PUSH1 0x20 DUP2 ADD DUP5 DUP5 DUP5 ADD GT ISZERO PUSH2 0x561 JUMPI PUSH2 0x560 PUSH2 0x461 JUMP JUMPDEST JUMPDEST PUSH2 0x56C DUP5 DUP3 DUP6 PUSH2 0x523 JUMP JUMPDEST POP SWAP4 SWAP3 POP POP POP JUMP JUMPDEST PUSH1 0x0 DUP3 PUSH1 0x1F DUP4 ADD SLT PUSH2 0x589 JUMPI PUSH2 0x588 PUSH2 0x45C JUMP JUMPDEST JUMPDEST DUP2 CALLDATALOAD PUSH2 0x599 DUP5 DUP3 PUSH1 0x20 DUP7 ADD PUSH2 0x532 JUMP JUMPDEST SWAP2 POP POP SWAP3 SWAP2 POP POP JUMP JUMPDEST PUSH1 0x0 DUP1 PUSH1 0x40 DUP4 DUP6 SUB SLT ISZERO PUSH2 0x5B9 JUMPI PUSH2 0x5B8 PUSH2 0x452 JUMP JUMPDEST JUMPDEST PUSH1 0x0 DUP4 ADD CALLDATALOAD PUSH8 0xFFFFFFFFFFFFFFFF DUP2 GT ISZERO PUSH2 0x5D7 JUMPI PUSH2 0x5D6 PUSH2 0x457 JUMP JUMPDEST JUMPDEST PUSH2 0x5E3 DUP6 DUP3 DUP7 ADD PUSH2 0x574 JUMP JUMPDEST SWAP3 POP POP PUSH1 0x20 DUP4 ADD CALLDATALOAD PUSH8 0xFFFFFFFFFFFFFFFF DUP2 GT ISZERO PUSH2 0x604 JUMPI PUSH2 0x603 PUSH2 0x457 JUMP JUMPDEST JUMPDEST PUSH2 0x610 DUP6 DUP3 DUP7 ADD PUSH2 0x574 JUMP JUMPDEST SWAP2 POP POP SWAP3 POP SWAP3 SWAP1 POP JUMP JUMPDEST PUSH1 0x0 DUP2 ISZERO ISZERO SWAP1 POP SWAP2 SWAP1 POP JUMP JUMPDEST PUSH2 0x62F DUP2 PUSH2 0x61A JUMP JUMPDEST DUP3 MSTORE POP POP JUMP JUMPDEST PUSH1 0x0 PUSH1 0x20 DUP3 ADD SWAP1 POP PUSH2 0x64A PUSH1 0x0 DUP4 ADD DUP5 PUSH2 0x626 JUMP JUMPDEST SWAP3 SWAP2 POP POP JUMP JUMPDEST PUSH1 0x0 PUSH1 0x20 DUP3 DUP5 SUB SLT ISZERO PUSH2 0x666 JUMPI PUSH2 0x665 PUSH2 0x452 JUMP JUMPDEST JUMPDEST PUSH1 0x0 DUP3 ADD CALLDATALOAD PUSH8 0xFFFFFFFFFFFFFFFF DUP2 GT ISZERO PUSH2 0x684 JUMPI PUSH2 0x683 PUSH2 0x457 JUMP JUMPDEST JUMPDEST PUSH2 0x690 DUP5 DUP3 DUP6 ADD PUSH2 0x574 JUMP JUMPDEST SWAP2 POP POP SWAP3 SWAP2 POP POP JUMP JUMPDEST PUSH1 0x0 DUP2 MLOAD SWAP1 POP SWAP2 SWAP1 POP JUMP JUMPDEST PUSH1 0x0 DUP3 DUP3 MSTORE PUSH1 0x20 DUP3 ADD SWAP1 POP SWAP3 SWAP2 POP POP JUMP JUMPDEST PUSH1 0x0 JUMPDEST DUP4 DUP2 LT ISZERO PUSH2 0x6D3 JUMPI DUP1 DUP3 ADD MLOAD DUP2 DUP5 ADD MSTORE PUSH1 0x20 DUP2 ADD SWAP1 POP PUSH2 0x6B8 JUMP JUMPDEST PUSH1 0x0 DUP5 DUP5 ADD MSTORE POP POP POP POP JUMP JUMPDEST PUSH1 0x0 PUSH2 0x6EA DUP3 PUSH2 0x699 JUMP JUMPDEST PUSH2 0x6F4 DUP2 DUP6 PUSH2 0x6A4 JUMP JUMPDEST SWAP4 POP PUSH2 0x704 DUP2 DUP6 PUSH1 0x20 DUP7 ADD PUSH2 0x6B5 JUMP JUMPDEST PUSH2 0x70D DUP2 PUSH2 0x466 JUMP JUMPDEST DUP5 ADD SWAP2 POP POP SWAP3 SWAP2 POP POP JUMP JUMPDEST PUSH1 0x0 DUP2 SWAP1 POP SWAP2 SWAP1 POP JUMP JUMPDEST PUSH2 0x72B DUP2 PUSH2 0x718 JUMP JUMPDEST DUP3 MSTORE POP POP JUMP JUMPDEST PUSH1 0x0 PUSH1 0x40 DUP3 ADD SWAP1 POP DUP2 DUP2 SUB PUSH1 0x0 DUP4 ADD MSTORE PUSH2 0x74B DUP2 DUP6 PUSH2 0x6DF JUMP JUMPDEST SWAP1 POP PUSH2 0x75A PUSH1 0x20 DUP4 ADD DUP5 PUSH2 0x722 JUMP JUMPDEST SWAP4 SWAP3 POP POP POP JUMP JUMPDEST PUSH1 0x0 DUP2 SWAP1 POP SWAP3 SWAP2 POP POP JUMP JUMPDEST PUSH1 0x0 PUSH2 0x777 DUP3 PUSH2 0x699 JUMP JUMPDEST PUSH2 0x781 DUP2 DUP6 PUSH2 0x761 JUMP JUMPDEST SWAP4 POP PUSH2 0x791 DUP2 DUP6 PUSH1 0x20 DUP7 ADD PUSH2 0x6B5 JUMP JUMPDEST DUP1 DUP5 ADD SWAP2 POP POP SWAP3 SWAP2 POP POP JUMP JUMPDEST PUSH1 0x0 PUSH2 0x7A9 DUP3 DUP5 PUSH2 0x76C JUMP JUMPDEST SWAP2 POP DUP2 SWAP1 POP SWAP3 SWAP2 POP POP JUMP JUMPDEST PUSH32 0x4E487B7100000000000000000000000000000000000000000000000000000000 PUSH1 0x0 MSTORE PUSH1 0x22 PUSH1 0x4 MSTORE PUSH1 0x24 PUSH1 0x0 REVERT JUMPDEST PUSH1 0x0 PUSH1 0x2 DUP3 DIV SWAP1 POP PUSH1 0x1 DUP3 AND DUP1 PUSH2 0x7FB JUMPI PUSH1 0x7F DUP3 AND SWAP2 POP JUMPDEST PUSH1 0x20 DUP3 LT DUP2 SUB PUSH2 0x80E JUMPI PUSH2 0x80D PUSH2 0x7B4 JUMP JUMPDEST JUMPDEST POP SWAP2 SWAP1 POP JUMP JUMPDEST PUSH32 0x48617368206E6F7420666F756E6420666F7220746869732049442E0000000000 PUSH1 0x0 DUP3 ADD MSTORE POP JUMP JUMPDEST PUSH1 0x0 PUSH2 0x84A PUSH1 0x1B DUP4 PUSH2 0x6A4 JUMP JUMPDEST SWAP2 POP PUSH2 0x855 DUP3 PUSH2 0x814 JUMP JUMPDEST PUSH1 0x20 DUP3 ADD SWAP1 POP SWAP2 SWAP1 POP JUMP JUMPDEST PUSH1 0x0 PUSH1 0x20 DUP3 ADD SWAP1 POP DUP2 DUP2 SUB PUSH1 0x0 DUP4 ADD MSTORE PUSH2 0x879 DUP2 PUSH2 0x83D JUMP JUMPDEST SWAP1 POP SWAP2 SWAP1 POP JUMP JUMPDEST PUSH1 0x0 DUP2 SWAP1 POP DUP2 PUSH1 0x0 MSTORE PUSH1 0x20 PUSH1 0x0 KECCAK256 SWAP1 POP SWAP2 SWAP1 POP JUMP JUMPDEST PUSH1 0x0 DUP2 SLOAD PUSH2 0x8A2 DUP2 PUSH2 0x7E3 JUMP JUMPDEST PUSH2 0x8AC DUP2 DUP7 PUSH2 0x761 JUMP JUMPDEST SWAP5 POP PUSH1 0x1 DUP3 AND PUSH1 0x0 DUP2 EQ PUSH2 0x8C7 JUMPI PUSH1 0x1 DUP2 EQ PUSH2 0x8DC JUMPI PUSH2 0x90F JUMP JUMPDEST PUSH1 0xFF NOT DUP4 AND DUP7 MSTORE DUP2 ISZERO ISZERO DUP3 MUL DUP7 ADD SWAP4 POP PUSH2 0x90F JUMP JUMPDEST PUSH2 0x8E5 DUP6 PUSH2 0x880 JUMP JUMPDEST PUSH1 0x0 JUMPDEST DUP4 DUP2 LT ISZERO PUSH2 0x907 JUMPI DUP2 SLOAD DUP2 DUP10 ADD MSTORE PUSH1 0x1 DUP3 ADD SWAP2 POP PUSH1 0x20 DUP2 ADD SWAP1 POP PUSH2 0x8E8 JUMP JUMPDEST DUP4 DUP9 ADD SWAP6 POP POP POP JUMPDEST POP POP POP SWAP3 SWAP2 POP POP JUMP JUMPDEST PUSH1 0x0 PUSH2 0x924 DUP3 DUP5 PUSH2 0x895 JUMP JUMPDEST SWAP2 POP DUP2 SWAP1 POP SWAP3 SWAP2 POP POP JUMP JUMPDEST PUSH32 0x4861736820646F6573206E6F742065786973742E000000000000000000000000 PUSH1 0x0 DUP3 ADD MSTORE POP JUMP JUMPDEST PUSH1 0x0 PUSH2 0x965 PUSH1 0x14 DUP4 PUSH2 0x6A4 JUMP JUMPDEST SWAP2 POP PUSH2 0x970 DUP3 PUSH2 0x92F JUMP JUMPDEST PUSH1 0x20 DUP3 ADD SWAP1 POP SWAP2 SWAP1 POP JUMP JUMPDEST PUSH1 0x0 PUSH1 0x20 DUP3 ADD SWAP1 POP DUP2 DUP2 SUB PUSH1 0x0 DUP4 ADD MSTORE PUSH2 0x994 DUP2 PUSH2 0x958 JUMP JUMPDEST SWAP1 POP SWAP2 SWAP1 POP JUMP JUMPDEST PUSH32 0x4861736820616C7265616479206578697374732E000000000000000000000000 PUSH1 0x0 DUP3 ADD MSTORE POP JUMP JUMPDEST PUSH1 0x0 PUSH2 0x9D1 PUSH1 0x14 DUP4 PUSH2 0x6A4 JUMP JUMPDEST SWAP2 POP PUSH2 0x9DC DUP3 PUSH2 0x99B JUMP JUMPDEST PUSH1 0x20 DUP3 ADD SWAP1 POP SWAP2 SWAP1 POP JUMP JUMPDEST PUSH1 0x0 PUSH1 0x20 DUP3 ADD SWAP1 POP DUP2 DUP2 SUB PUSH1 0x0 DUP4 ADD MSTORE PUSH2 0xA00 DUP2 PUSH2 0x9C4 JUMP JUMPDEST SWAP1 POP SWAP2 SWAP1 POP JUMP JUMPDEST PUSH32 0x486173682063616E6E6F7420626520656D7074792E0000000000000000000000 PUSH1 0x0 DUP3 ADD MSTORE POP JUMP JUMPDEST PUSH1 0x0 PUSH2 0xA3D PUSH1 0x15 DUP4 PUSH2 0x6A4 JUMP JUMPDEST SWAP2 POP PUSH2 0xA48 DUP3 PUSH2 0xA07 JUMP JUMPDEST PUSH1 0x20 DUP3 ADD SWAP1 POP SWAP2 SWAP1 POP JUMP JUMPDEST PUSH1 0x0 PUSH1 0x20 DUP3 ADD SWAP1 POP DUP2 DUP2 SUB PUSH1 0x0 DUP4 ADD MSTORE PUSH2 0xA6C DUP2 PUSH2 0xA30 JUMP JUMPDEST SWAP1 POP SWAP2 SWAP1 POP JUMP JUMPDEST PUSH1 0x0 PUSH1 0x20 PUSH1 0x1F DUP4 ADD DIV SWAP1 POP SWAP2 SWAP1 POP JUMP JUMPDEST PUSH1 0x0 DUP3 DUP3 SHL SWAP1 POP SWAP3 SWAP2 POP POP JUMP JUMPDEST PUSH1 0x0 PUSH1 0x8 DUP4 MUL PUSH2 0xAC0 PUSH32 0xFFFFFFFFFFFFFFFFFFFFFFFFFFFFFFFFFFFFFFFFFFFFFFFFFFFFFFFFFFFFFFFF DUP3 PUSH2 0xA83 JUMP JUMPDEST PUSH2 0xACA DUP7 DUP4 PUSH2 0xA83 JUMP JUMPDEST SWAP6 POP DUP1 NOT DUP5 AND SWAP4 POP DUP1 DUP7 AND DUP5 OR SWAP3 POP POP POP SWAP4 SWAP3 POP POP POP JUMP JUMPDEST PUSH1 0x0 DUP2 SWAP1 POP SWAP2 SWAP1 POP JUMP JUMPDEST PUSH1 0x0 PUSH2 0xB07 PUSH2 0xB02 PUSH2 0xAFD DUP5 PUSH2 0x718 JUMP JUMPDEST PUSH2 0xAE2 JUMP JUMPDEST PUSH2 0x718 JUMP JUMPDEST SWAP1 POP SWAP2 SWAP1 POP JUMP JUMPDEST PUSH1 0x0 DUP2 SWAP1 POP SWAP2 SWAP1 POP JUMP JUMPDEST PUSH2 0xB21 DUP4 PUSH2 0xAEC JUMP JUMPDEST PUSH2 0xB35 PUSH2 0xB2D DUP3 PUSH2 0xB0E JUMP JUMPDEST DUP5 DUP5 SLOAD PUSH2 0xA90 JUMP JUMPDEST DUP3 SSTORE POP POP POP POP JUMP JUMPDEST PUSH1 0x0 SWAP1 JUMP JUMPDEST PUSH2 0xB4A PUSH2 0xB3D JUMP JUMPDEST PUSH2 0xB55 DUP2 DUP5 DUP5 PUSH2 0xB18 JUMP JUMPDEST POP POP POP JUMP JUMPDEST JUMPDEST DUP2 DUP2 LT ISZERO PUSH2 0xB79 JUMPI PUSH2 0xB6E PUSH1 0x0 DUP3 PUSH2 0xB42 JUMP JUMPDEST PUSH1 0x1 DUP2 ADD SWAP1 POP PUSH2 0xB5B JUMP JUMPDEST POP POP JUMP JUMPDEST PUSH1 0x1F DUP3 GT ISZERO PUSH2 0xBBE JUMPI PUSH2 0xB8F DUP2 PUSH2 0x880 JUMP JUMPDEST PUSH2 0xB98 DUP5 PUSH2 0xA73 JUMP JUMPDEST DUP2 ADD PUSH1 0x20 DUP6 LT ISZERO PUSH2 0xBA7 JUMPI DUP2 SWAP1 POP JUMPDEST PUSH2 0xBBB PUSH2 0xBB3 DUP6 PUSH2 0xA73 JUMP JUMPDEST DUP4 ADD DUP3 PUSH2 0xB5A JUMP JUMPDEST POP POP JUMPDEST POP POP POP JUMP JUMPDEST PUSH1 0x0 DUP3 DUP3 SHR SWAP1 POP SWAP3 SWAP2 POP POP JUMP JUMPDEST PUSH1 0x0 PUSH2 0xBE1 PUSH1 0x0 NOT DUP5 PUSH1 0x8 MUL PUSH2 0xBC3 JUMP JUMPDEST NOT DUP1 DUP4 AND SWAP2 POP POP SWAP3 SWAP2 POP POP JUMP JUMPDEST PUSH1 0x0 PUSH2 0xBFA DUP4 DUP4 PUSH2 0xBD0 JUMP JUMPDEST SWAP2 POP DUP3 PUSH1 0x2 MUL DUP3 OR SWAP1 POP SWAP3 SWAP2 POP POP JUMP JUMPDEST PUSH2 0xC13 DUP3 PUSH2 0x699 JUMP JUMPDEST PUSH8 0xFFFFFFFFFFFFFFFF DUP2 GT ISZERO PUSH2 0xC2C JUMPI PUSH2 0xC2B PUSH2 0x477 JUMP JUMPDEST JUMPDEST PUSH2 0xC36 DUP3 SLOAD PUSH2 0x7E3 JUMP JUMPDEST PUSH2 0xC41 DUP3 DUP3 DUP6 PUSH2 0xB7D JUMP JUMPDEST PUSH1 0x0 PUSH1 0x20 SWAP1 POP PUSH1 0x1F DUP4 GT PUSH1 0x1 DUP2 EQ PUSH2 0xC74 JUMPI PUSH1 0x0 DUP5 ISZERO PUSH2 0xC62 JUMPI DUP3 DUP8 ADD MLOAD SWAP1 POP JUMPDEST PUSH2 0xC6C DUP6 DUP3 PUSH2 0xBEE JUMP JUMPDEST DUP7 SSTORE POP PUSH2 0xCD4 JUMP JUMPDEST PUSH1 0x1F NOT DUP5 AND PUSH2 0xC82 DUP7 PUSH2 0x880 JUMP JUMPDEST PUSH1 0x0 JUMPDEST DUP3 DUP2 LT ISZERO PUSH2 0xCAA JUMPI DUP5 DUP10 ADD MLOAD DUP3 SSTORE PUSH1 0x1 DUP3 ADD SWAP2 POP PUSH1 0x20 DUP6 ADD SWAP5 POP PUSH1 0x20 DUP2 ADD SWAP1 POP PUSH2 0xC85 JUMP JUMPDEST DUP7 DUP4 LT ISZERO PUSH2 0xCC7 JUMPI DUP5 DUP10 ADD MLOAD PUSH2 0xCC3 PUSH1 0x1F DUP10 AND DUP3 PUSH2 0xBD0 JUMP JUMPDEST DUP4 SSTORE POP JUMPDEST PUSH1 0x1 PUSH1 0x2 DUP9 MUL ADD DUP9 SSTORE POP POP POP JUMPDEST POP POP POP POP POP POP JUMP JUMPDEST PUSH1 0x0 PUSH1 0x60 DUP3 ADD SWAP1 POP DUP2 DUP2 SUB PUSH1 0x0 DUP4 ADD MSTORE PUSH2 0xCF6 DUP2 DUP7 PUSH2 0x6DF JUMP JUMPDEST SWAP1 POP DUP2 DUP2 SUB PUSH1 0x20 DUP4 ADD MSTORE PUSH2 0xD0A DUP2 DUP6 PUSH2 0x6DF JUMP JUMPDEST SWAP1 POP PUSH2 0xD19 PUSH1 0x40 DUP4 ADD DUP5 PUSH2 0x722 JUMP JUMPDEST SWAP5 SWAP4 POP POP POP POP JUMP INVALID LOG2 PUSH5 0x6970667358 0x22 SLT KECCAK256 ADDRESS JUMP PUSH22 0x31DD50D327FF993030BF2FFA7E1E0C6AB5348638996B CALLDATALOAD EXTCODECOPY AND PUSH23 0x52D53864736F6C634300081C0033000000000000000000 "},"methodIdentifiers":{"getHash(string)":"5b6beeb9","storeHash(string,string)":"6f28ee09","verifyHash(string,string)":"258b85d4"}}}}}